:10000000E0150020C52A00007B6D0000992A000041
:10001000992A0000992A0000992A00000000000097
:10002000000000000000000000000000D1230000DC
:10003000992A0000000000007D230000992A00009A
:10004000812400008124000081240000812400001C
:10005000812400008124000081240000812400000C
:1000600081240000812400008124000081240000FC
:1000700081240000812400008124000081240000EC
:1000800081240000812400008124000081240000DC
:1000900081240000812400008124000081240000CC
:1000A00081240000812400008124000081240000BC
:1000B00081240000812400008124000081240000AC
:1000C000812400008124000081240000812400009C
:0C00D00081240000812400008124000035
:1000DC0053B94AB9002908BF00281CBF4FF0FF31A3
:1000EC004FF0FF3000F00CB8ADF1080C6DE904CE08
:1000FC0000F008F8DDF804E0DDE9022304B07047F5
:10010C00704700BF2DE9F04F07468C460846099E04
:10011C0015463C461946002B40F0C6808242B2FA86
:10012C0082F746D94FB1C7F1200E24FA0EFE00FA21
:10013C0007F3BD404EEA030CBC404FEA15481FFACA
:10014C0085FEBCFBF8F9220C08FB19C309FB0EFA5F
:10015C0042EA03439A4528D9EB1809F1FF3004D23F
:10016C009A4502D9A9F102002B44A3EB0A03A4B2CD
:10017C00B3FBF8F208FB123302FB0EFE44EA034415
:10018C00A64514D92C1902F1FF3303D2A64501D987
:10019C00931E2C44A4EB0E0443EA00401EB1FC4019
:1001AC00002334607360BDE8F08F4846DDE71346EA
:1001BC00F0E702B9FFDE87BB831A01214FEA154E27
:1001CC00AAB2B3FBFEFC200C0EFB1C330CFB02F89A
:1001DC0040EA0343984563D9EB180CF1FF3004D285
:1001EC00984502D9ACF102002B44A3EB0803A4B24E
:1001FC00B3FBFEFC0EFB1C330CFB02F244EA034483
:10020C00A2424FD92C190CF1FF3304D2A24202D9CD
:10021C00ACF102032C44A41ABEE7C7F1200C20FA5F
:10022C000CF800FA07F324FA0CFCBD404CEA03026C
:10023C004FEA154EABB2B8FBFEFC110C0EFB1C804A
:10024C000CFB03F941EA0040814504FA07F423D979
:10025C0028180CF1FF3104D2814502D9ACF102010E
:10026C002844A0EB090092B2B0FBFEFC0EFB1C0074
:10027C000CFB03F842EA004398450FD9EB180CF13C
:10028C00FF3204D2984502D9ACF102022B44A3EB05
:10029C00080342EA014191E76146E2E76246F6E76C
:1002AC006046A2E76346B6E7834205D90EB1C6E9BC
:1002BC0000700021084676E7B3FA83F181B98342D6
:1002CC0001D3BA420AD8BC1A60EB030301209C4646
:1002DC00002E68D0C6E9004C002164E70846F7E719
:1002EC00C1F1200C8B4022FA0CF41C4302FA01F5EC
:1002FC0000FA01F327FA0CF220FA0CFB4FEA14492E
:10030C001343BBFBF9F81FFA84FE09FB18BB1A0C4C
:10031C0008FB0EFA42EA0B42924507FA01F73ED966
:10032C00A21808F1FF3004D2924502D9A8F10200BC
:10033C002244A2EB0A029BB2B2FBF9F809FB182289
:10034C0008FB0EFE43EA024296452AD9A21808F190
:10035C00FF3304D2964502D9A8F10203224443EAA2
:10036C000040A0FB0593A2EB0E029A42CE469846A3
:10037C0002D306D14F4504D2B9EB050E63EB04084A
:10038C00013886B1B7EB0E0362EB080707FA0CFCD9
:10039C00CB404CEA0303CF40C6E900379CE740460C
:1003AC00C7E74346DBE73146FDE6000073B513486B
:1003BC0006F0E4F8124C204607F0BAF8216828B988
:1003CC00104802B0BDE8704006F0D8B80E480F4E89
:1003DC0006F0D4F8A5683921EB682046984722210D
:1003EC002B696A46204698470099304606F0C6F8B5
:1003FC0000214FF4004005F0F9FDECE7F87D00001A
:10040C001C790000067E00005A7E0000827E0000EF
:10041C002DE9F04F8DB01F46169B0292009302F00F
:10042C000403C2F3C2020193531C820705460E4615
:10043C00049340F02182041D002840F0208201F03A
:10044C000706341DC6F108064FF0000A4FF00408E9
:10045C007B1ECDF80CA05246D146414605B1276013
:10046C000498002807DCCB488742C0F04181CA4879
:10047C00874280F03D81029810F0020E00F051810D
:10048C004FF0010C601BBEF1000F00F03781B0F58E
:10049C00007FC0F033816FF01500FEE0B9F1000F62
:1004AC0008D1252840F041814FF001094FF0040894
:1004BC0041463AE12B2825D81F2802D84FF00009D5
:1004CC0033E1A0F1200CBCF10B0FF7D80FF2040EA6
:1004DC005EF82CF037070000C9040000C9040000C6
:1004EC0037070000C9040000C9040000C90400005B
:1004FC00C9040000C9040000C9040000C7060000BC
:10050C0037070000A0F12D0C5FFA8CFEBEF14D0FE9
:10051C00D4D8BCF14D0FD1D80FF2040E5EF82CF0EC
:10052C003707000037070000C90400003707000038
:10053C0037070000370700003707000037070000B7
:10054C0037070000370700003707000037070000A7
:10055C0037070000C9040000C9040000C9040000EA
:10056C00C9040000C9040000C9040000C90400004B
:10057C0083060000C9040000C9040000C90400007F
:10058C00830600008306000083060000C9040000F7
:10059C00C9040000C9040000C904000037070000AA
:1005AC00C9040000C9040000C9040000C90400000B
:1005BC00C9040000C9040000C9040000C9040000FB
:1005CC00C9040000C9040000C9040000650600004D
:1005DC00C9040000C9040000C9040000C9040000DB
:1005EC00C9040000C9040000C9040000C9040000CB
:1005FC0083060000C90400006506000065060000C3
:10060C008306000083060000830600003707000005
:10061C0065060000B7060000C9040000370700009B
:10062C00C9040000BD06000065060000BD06000000
:10063C00C9040000C9040000BD060000B904000094
:10064C0065060000C9040000C9040000650600002E
:10065C00C9040000B904000013F801CCBCF16C0F04
:10066C0029D113F8021C6C294FF000093DD04FF032
:10067C000408414621E0009800F1070B2BF007001D
:10068C00F0E802890734009024F0070455B105986E
:10069C002044B04204D96FF01B000DB0BDE8F08FC0
:1006AC00C4E9008908344FF000094FF00808FFE650
:1006BC004FF00009DBE74FF00009013C4444C8F15E
:1006CC00000C04EA0C0425B1A1EB050CA444B445C0
:1006DC00E1D8732852D10498DDF800B001385BF8EA
:1006EC00047B0490CDF800B0B8E64FF00808C0E7E2
:1006FC0002984FF0000C00F0020EC3E60F2A3FF6F2
:10070C00CAAE45B30DF1300EC0F387009644BCF170
:10071C00000F1AD060F07F000EF8100C0AF1010ADD
:10072C000132C5F108000434059013F8010F0028BC
:10073C007FF4B4AE611BB1F5806FBFF4ACAE002D8D
:10074C003ED1A6F108046018A7E70EF8100C039828
:10075C0001300390E4E7BCF1000F01D1019808B11E
:10076C000136DDE73846CDE90612059306F013FB9A
:10077C000236DDE90612059B0644D1E704290DD1AA
:10078C00009800F1040C0DB1006820600434CDF821
:10079C0000C0CAE7247800000088000008297FF414
:1007AC007AAE0098073020F0070000F1080CCDF865
:1007BC0000C01DB1D0E900BCC4E900BC0834B4E7EA
:1007CC00019B2860890829709DF80C10A3B16870F2
:1007DC00E97085F802A0BAF1000F06D008A84FF016
:1007EC00000CC5F1010E62450AD10DF1200808EB91
:1007FC000209C5F1010B39E0019B6970EB70E8E768
:10080C0010F8011B0B0608D504EB0E08B04501F0DF
:10081C007F013FF640AF04F8011B0CF1010CE2E73D
:10082C00BAF1000F03D098F90020002A1CDB019BC1
:10083C0003BB98F8002055F8227045F82230384652
:10084C0006F0A9FA421C04EB0B011144B1423FF62D
:10085C0022AF98F8001004F8011B3946204600928C
:10086C0006F0A9FA009A144408F10108C145D7D141
:10087C00601B12E70022E6E76FF00D000DE7072979
:10088C003FF6E2AD07E700BF2DE9F04F8BB006460F
:10089C00DDF850B0049314460F46B1B1B578059508
:1008AC0035BBAA46F378019313B11BF0020F22D18A
:1008BC00BAF1000F1FD124B13A463146204606F05A
:1008CC007AFA38460BB0BDE8F08F90F80190B57805
:1008DC00007805EB800535448A46CA45DED20135E1
:1008EC00284606F058FA013005440AF1010AF4E7EB
:1008FC000BF0010AD6E796F800904FEA89030393B0
:10090C0006EB8909002C5BD1BAF1000F32D04D44B3
:10091C004D451DD1A946DDF804A0DFF804C281497C
:10092C000BF005084D46CA440BF00202AA45C8D08C
:10093C0015F8010B56F82000604524D3884222D2CA
:10094C001BF0010F39D1B8F1000FEFD1013FEDE7EA
:10095C0019F8013B56F8230006F01DFA159B0130DF
:10096C0033B1169B9C423EBF159B23F814000134F7
:10097C000744CDE72DB11BF00404CCD0A944544658
:10098C00C9E72C46C7E7002AD0D04FF000090192E6
:10099C0006F001FA159BDFF888C1019A6149013014
:1009AC0033B1169B9C423EBF159B23F814000134B7
:1009BC000744B9F1000FB9D0C5E74FF00109E6E7DC
:1009CC00039A3146204606F0F6F9039BE31802938E
:1009DC00BAF1000F0AD049462A4606A806F0EBF9F0
:1009EC000023A370A944DDF808800DE0BDB11BF015
:1009FC00040F14D02A464946029806F0DCF9029BF3
:100A0C00A94403EB05085546019B0BF0020E0BF0B5
:100A1C0001004A4609EB030C0BF0040B25E0002502
:100A2C00A570E0E712F8013BDFF8F4A056F82310AC
:100A3C00514503D3DFF8ECA0514505D3BEF1000FAF
:100A4C0003D108F8013B10E038B10DF1280A691CFC
:100A5C00554405F8103CCDB207E0BBF1000F04D0B3
:100A6C0008F8013BA3780133A3709445DAD163787D
:100A7C00019A2B446370029BA8EB030BA378ABEB9E
:100A8C00030B059B84F803B01344FF1A039BFF1A56
:100A9C00019B40463A4609EB0301B84406F08BF93A
:100AAC00A8EB0400002D3FF40DAF049B1C1AA542CB
:100ABC0002D36FF01B0005E74FF0000906AB159A47
:100ACC0013F8093056F82310C2B132F81970C24627
:100ADC0004F1FF3B0AF8013B97B13A46504606F049
:100AEC006AF909F101094D45ABEB07040AEB07085C
:100AFC00E4DC049B1F44A7EB0B00E3E6159FE6E741
:100B0C00013901239C42D4D011F8012F08F803209D
:100B1C00581C12B91F1EE4DACBE70346F2E700BFFC
:100B2C002478000000880000014B1860704700BF5B
:100B3C000000002030B585B0CDE901010446002548
:100B4C0001A90548039500F0E9F8DDE90230984267
:100B5C00B8BF255405B030BD636500002DE9F84FD2
:100B6C00B0F8189019F00808044693460DD00129E6
:100B7C000CBF49F0100949F02009A0F818908BF32C
:100B8C001188BFF36F8FBDE8F88F09F007090229B0
:100B9C0007D1204605F00CFD0028F0D00128238B4E
:100BAC004ED16769218B002F15DA256821F00701DA
:100BBC00C4E9008841F0010121830026218B01F05A
:100BCC00070ACA4502D0A368002B5AD10DB9002ED2
:100BDC0071D0002356E001F007035A1F012A1ED8DA
:100BEC0021F00701062B256889B2C4E900880AD1D7
:100BFC003DB1638B2A46126801339BB2002AFAD1AD
:100C0C00638341F002012183204605F0D1FC0646A6
:100C1C000028D3D0238B43F020032383CDE7042B70
:100C2C000CD121F0070189B22183204605F0C0FCCC
:100C3C0005460028C1D041F0200121830025BCE7E6
:100C4C00032809D1226923F00703166843F0060331
:100C5C00238300252F46B1E7042806D1226923F00F
:100C6C000703566843F00403F2E7052806D122690E
:100C7C0023F00703966843F00503E9E700252E46A9
:100C8C00E8E7012341F0080121838BF31188BFF3BE
:100C9C006F8FFBB985BB16B11F492046B0474FF08B
:100CAC002003EFF3118B83F31288BFF36F8F238B29
:100CBC0023F008032383238BDA0625D523F01003B6
:100CCC0023830121B4F8189009F0070900297FF457
:100CDC005EAF54E7A1680029DCD0D1F80090D1F8C0
:100CEC0004B03B4652462046D847B9F1000FD1D04C
:100CFC004946D9F80090F2E729463B465246204631
:100D0C002D6805F071FCC5E713F020011EBF23F020
:100D1C00200323830221D5E7216600002DE9F04F43
:100D2C0091B08B46029092461C4600259AF8000022
:100D3C0008B928465FE325280AF1010707D0029B72
:100D4C00594698470028C0F25683013512E2182202
:100D5C0000210AA806F03AF89AF80130252B78D031
:100D6C0000221046964694461646394617F8013B23
:100D7C002B2B00F09D8000F29480202B00F09B80A8
:100D8C00232B00F09B802EB19DF8306046F00406BA
:100D9C008DF83060BCF1000F05D09DF8306046F046
:100DAC0008068DF83060BEF1000F05D09DF830605C
:100DBC0046F010068DF8306028B19DF8300040F0F8
:100DCC0020008DF830002AB19DF8302042F040020E
:100DDC008DF830209DF8302002F04400442803D1D7
:100DEC006FF386128DF830209DF830202A2B42F0BC
:100DFC0080028DF830207BD19DF8312042F0010229
:100E0C004B1C8DF831201A782E2A9DF831200CBFFE
:100E1C000121002161F341028DF8312074D15A78FF
:100E2C002A2A6AD0013300210A26184610F8012B11
:100E3C00A2F13007092F40F28E809DF830200E91E0
:100E4C00C2F3400040EAD17161F341028DF83020C9
:100E5C005AE00AF102078DF833309DF83130D9078A
:100E6C0040F1498154F8049BB9F1000F07DA9DF861
:100E7C00302042F004028DF83020C9F100095A07E5
:100E8C0040F1428154F8048BB8F1000F80F241819B
:100E9C009DF831306FF341038DF831304FF0FF384E
:100EAC0037E12D2B0CD0302B7FF46DAF01225CE79A
:100EBC004FF0010C59E74FF0010E56E7012054E7B3
:100ECC00012652E70CFB0202303A33461E4616F856
:100EDC00010BA0F13007092FF4D9994293D09DF85A
:100EEC0030100D92D20F62F341018DF830108AE769
:100EFC000B4600224FF00A0CE8E79DF8312042F037
:100F0C0004028DF8312002331F4617F8012B6C2A8E
:100F1C0041D025D8682A2BD06A2A46D04C2A4CD0EE
:100F2C001F4617F8012B9DF831308DF83320782AA5
:100F3C0000F2D980572A4DD8412A03D0453A022ACB
:100F4C0000F2D1809DF83230042262F302038DF856
:100F5C00323001239EE006FB01213039034664E761
:100F6C00742A26D07A2ADBD19DF8313006220DE086
:100F7C005A78682A9DF8312006D1012161F3C60206
:100F8C008DF831209F1CCCE71346022262F3C60376
:100F9C008DF83130C5E75A786C2A9DF8312001D193
:100FAC000421EBE713460322F0E79DF831300522CC
:100FBC00ECE79DF831300722E8E7BDF8303023F438
:100FCC00F04323F0020343F4804343F00203ADF8F3
:100FDC003030A6E7A2F15801202900F2848001A04C
:100FEC0050F821F0B5100000F3100000F3100000D1
:100FFC00F3100000F3100000F3100000F3100000D9
:10100C00F3100000F3100000510F0000F31000006B
:10101C00B510000075100000510F0000510F0000BA
:10102C00510F0000F310000075100000F3100000C9
:10103C00F3100000F3100000F3100000BD100000CE
:10104C00B5100000D9100000F3100000F3100000E0
:10105C00D9100000F3100000B5100000F3100000D0
:10106C00F3100000B51000009DF83210012003F0C1
:10107C00780360F30201402B8DF8321002BF9DF80B
:10108C00301041F001018DF83010632A31D1003B52
:10109C0018BF01239DF83020C2F340010B4363F3CA
:1010AC0041028DF83020D8E69DF832100220DEE7A0
:1010BC009DF8322003F07803A3F14000032161F383
:1010CC00020243428DF832204341E3E79DF832207F
:1010DC00032113F0780F61F302028DF8322014BF54
:1010EC0001230023D6E79DF8303043F001038DF83F
:1010FC0030300023CEE79DF93020002AB4BFDDF854
:10110C0034904FF0FF39BAE69B077FF5C7AEDDF898
:10111C0038809DF831100023CDE90D339DF8323025
:10112C0003F00703012BC1F3C30138D1CB1E042BF1
:10113C0022D8DFE803F003090921210054F8043B0D
:10114C00DA17CDE90A3206E0073424F00704F4E894
:10115C000223CDE90A239DF8303013F0030656D054
:10116C0002983B465246594605F01DFB0028C0F23A
:10117C0042810544BA46D9E554F8043B01294FEAAB
:10118C00E372CDE90A3205D19DF828300A93002389
:10119C000B93E0E70229DED1BDF92830D0E7022B12
:1011AC0023D1CB1E042B13D8DFE803F0030A0A1259
:1011BC00120022680A920023201D0B930446CAE7F2
:1011CC00E01D20F00700F0E80223CDE90A23F5E743
:1011DC0054F8043B0A9301294FF000030B93D3D02E
:1011EC000229B8D1BDF82830D0E7042B09D1E31D72
:1011FC0023F0070303F10804D3E90023CDE90A2304
:10120C00A9E7032B04BF54F8043B0A93A3E79DF80A
:10121C0033007828AED8622822D825283FF48FAD29
:10122C005828A7D10DF126030093DDE90A0104AB80
:10123C000CAA05F072FA8246B8F1000F0DF12600E7
:10124C000CDB9DF83020A0EB0A036FF38612984557
:10125C008DF8302002D9A8EB03030D9380463DE0B6
:10126C006338152886D801A252F820F0F912000034
:10127C005D1300008111000081110000811100003C
:10128C00811100005D13000081110000811100002C
:10129C008111000081110000B713000085130000BC
:1012AC00891300008111000081110000D11200008F
:1012BC0081110000851300008111000081110000D4
:1012CC0085130000B8F1000FDDF828A00ADB4146B9
:1012DC00504605F067FD0AEB00080026BAF1000F36
:1012EC000CD147E7504605F056FDF4E70A9B8DF804
:1012FC00103000260DF1100A0DF11108A8EB0A03AD
:10130C0006B101339DF83220D00668D5023352065F
:10131C000D9948BF0E9A0B4448BF9B18B9F1000FAA
:10132C0076DD9DF83020A9EB0309C2F3800303930B
:10133C0053076DD4500661D546B1029B59463046D1
:10134C009847002857DB039B01351E46302356E097
:10135C001E070FD413F0100618BF2026DDE90A2350
:10136C00002BBFF65FAF524263EB4303CDE90A2378
:10137C002D2657E72B26F1E7002653E70A9840B3B2
:10138C000DF1260300930CAA04AB002105F0C5F95E
:10139C00BDF8323003F0EF0343F4F04343F0100395
:1013AC008246ADF83230002646E70A9B07293FF605
:1013BC00E1AEDFE801F00C04060C08080C0C1D7003
:1013CC00D8E61D80D6E6EA17C3E90052D2E61D60C6
:1013DC00D0E6DFF8C8A006460AF105088EE711072B
:1013EC0048BF013393E7184603935946029B98472D
:1013FC000028039B04DA11B0BDE8F08F20234D4484
:10140C004A46002AA5EB090109F1FF39EBDC0D4630
:10141C0036B1029B5946304698470028EBDB013524
:10142C009DF83230D90601D41A0706D5029B5946CD
:10143C00302098470028DEDB01359DF83230DB0682
:10144C0007D59DF83300029B594698470028D2DBFC
:10145C0001350D9E2E44731B002B16DC029843465F
:10146C005246594605F09FF90028C4DB0544A944AF
:10147C00A9EB0503002B7FF77DAE029B594620207C
:10148C0098470028B7DB0135F2E7029B594630201C
:10149C0098470028AFDB0135DDE700BF8E7E0000EA
:1014AC0030B51049104889B0002206F084F90F4D70
:1014BC000F4900220023CDE9062300240E23CDE999
:1014CC000334CDE901440B4B00944FF44072284691
:1014DC0004F00EF90849284606F03EF8204609B0FB
:1014EC0030BD00BF091500000006002038060020A2
:1014FC00C00E00202D170000947E0000014804F05F
:10150C0055BA00BFEC010020014B53F82000704786
:10151C00287B000070B5124BBFF35B8F53E8005F64
:10152C006A1C43E800210029F8D1BFF35B8F2DB969
:10153C000C4C0D4E361B3611B54200DB70BD237BB7
:10154C0053B123689B690BB120469847636804220A
:10155C001968204600F092F901351034ECE700BF11
:10156C00E8070020C47A0000E47A000010B5044CAF
:10157C00237813B9034804F019FA0123237010BD22
:10158C00920A0020EC0100200C4BBFF35B8F53E858
:10159C00002F013243E800210029F8D1BFF35B8F03
:1015AC0058B1BFF35B8F064B53E8002F013A43E869
:1015BC0000210029F8D1BFF35B8F7047E4070020AE
:1015CC00E00700200020064BBFF35B8F024653E878
:1015DC00000F43E800210029F9D1BFF35B8F70475E
:1015EC00E4070020F8B5FFF7EDFF0A4C0A4D2D1B60
:1015FC0007462D110026AE4200DBF8BD63685B790F
:10160C002BB123681B6913B1394620469847013624
:10161C001034F0E7C47A0000E47A00000149024873
:10162C0005F08CB9347B0000EC070020084A08B5A3
:10163C0000231370074A1360074B084A1A604FF4D3
:10164C00004000F0FBFABDE80840FFF7E7BF00BF21
:10165C00930A0020E407002004000020F16B000036
:10166C00014600220148002305F089B9EC0700204F
:10167C00014805F01ABA00BFEC07002001460148EA
:10168C0005F05FBAEC070020014805F08EBA00BFE8
:10169C00EC0700201D4B1B782DE9F041054603B9E2
:1016AC0088B305F0B4FA064618B16DB13046FFF7B1
:1016BC00E5FF2DB9164B1B68002B01DDFFF792FFE0
:1016CC00BDE8F041FFF7E0BF124BBFF35B8F53E86F
:1016DC00002F013A43E800210029F8D1BFF35B8FBA
:1016EC000D4C0E4F3F1B3F11A846B845DEDA636820
:1016FC005B7923B1236831461B682046984708F173
:10170C0001081034F1E7BDE8F08100BF920A002017
:10171C00E4070020E0070020C47A0000E47A00000F
:10172C0010B5FFF7F7FE04F07BFC0C4B186030B1E2
:10173C000B4B1B68092B02DD0A4804F037F9094CE6
:10174C000020FFF7A7FF0028FAD14FF0FF324FF02F
:10175C00FF33204604F04AF9F2E700BF24080020CA
:10176C00E0070020EC01002013B51D4BBFF35B8F8D
:10177C0053E8002F511C43E800100028F8D1BFF3A8
:10178C005B8F184B1B7883B14FF02003EFF3118460
:10179C0083F31288BFF36F8F0020FFF77BFF84F376
:1017AC001188BFF36F8F02B010BD0F4B1B68002B5D
:1017BC00F9D052B900220023CDE900230B484FF495
:1017CC000042002304F01CFEEDE70A2AEBD1074887
:1017DC0005F0FDFF064802B0BDE8104004F0E6B885
:1017EC00E0070020930A00202408002000060020B7
:1017FC00EC010020064B10B51B68044698472146A7
:10180C00A060044805F031F9BDE81040FFF7ACBF0B
:10181C0004000020EC070020F8B50E4F3D7875B998
:10182C000D4C0E4EFFF776FE361B3611B54207DB1C
:10183C000020FFF72FFF0028FAD101233B70F8BDE1
:10184C0063685B791BB1236820465B699847013557
:10185C001034EBE7930A0020C47A0000E47A00000D
:10186C00044A054B9B1AB1EBD30F34BF52F831002D
:10187C00002070476C7A0000C47A0000054A436867
:10188C00801A001101300122187119605A71FFF78A
:10189C006DBE00BFC47A00000EB403B503AB0146A5
:1018AC0053F8042B04480193FFF738FA02B05DF8A3
:1018BC0004EB03B0704700BF5B6C00002DE9F047F0
:1018CC001D46089B1746DA0604460E4605D49906B3
:1018DC004CBF2A492A49FFF7DFFFDFF8A8904FF0E9
:1018EC000008A8452ADBDFF8A080DFF8A090DFF81D
:1018FC0094A00025BD422FD2725D49462046FFF7C9
:10190C00CBFF0135102D20D12149DFF87880DFF88D
:10191C0084902046FFF7C0FF0025AF4228D9725DA6
:10192C00A2F120035F2B28BF2E2249462046FFF749
:10193C00B3FF0135102D14D1BDE8F0874946204680
:10194C00FFF7AAFF08F10108CBE76A07D2D151468D
:10195C002046FFF7A1FFCDE741462046FFF79CFF4D
:10196C00CFE76B07D9D141462046FFF795FFD4E767
:10197C0041462046FFF790FFDBE700BF07840000DD
:10198C0006840000A87E0000A67E0000A07E000059
:10199C00AA7E0000AC7E00002DE9F04F87B01C46FB
:1019AC0001F0010305929DF84090BDF948A0049305
:1019BC000746884601F0020B01F0080605F02BF9EA
:1019CC000246002844D03A493846FFF765FF0546E1
:1019DC00BBF1000F08D018F0440F3BD1354922461B
:1019EC003846FFF759FF0544049B53B1324B33493A
:1019FC0053F82920324B3846002A08BF1A46FFF705
:101A0C004BFF3EB12F4B304953F829203846FFF796
:101A1C0043FF0646BAF1000F16DB059B002B45D0A1
:101A2C00012303FA09F9294B294C19F0100F18BF9F
:101A3C001C4651469DF84400FFF712FF2146024612
:101A4C003846FFF729FF0644701907B0BDE8F08F40
:101A5C000546BDE71F4B18680028C4D01E4B4FF439
:101A6C007A781B68B4FBF3F44FF46161B4FBF0F3C8
:101A7C0000FB134408FB04F44FF03C0CB3FBF1F2F5
:101A8C0001FB1231B4FBF0FEB1FBFCF300FB1E4476
:101A9C000CFB131108FB04F40091B4FBF0F00F499C
:101AAC00CDE901E03846FFF7F7FE9CE7084CC0E7AC
:101ABC00BD7E0000C17E0000487B000099850000BF
:101ACC00AF7E00005C7B0000E67E0000B97E00006B
:101ADC00B47E0000280800202C080020CA7E0000DC
:101AEC0038B50C46E107054603D5084A0849FFF707
:101AFC00D3FEE20608D4A30628464CBF0549064986
:101B0C00BDE83840FFF7C8BE38BD00BFAF7E00004F
:101B1C009985000007840000068400002DE9FF472A
:101B2C000B8813F4E07F06460C469046C3F38219EB
:101B3C004DD00A784B68C2F3C202002B44D0254921
:101B4C005B1A43F3CF03CDE90123CDF80090A368D2
:101B5C00002241463046FFF71FFF8246254655F8C6
:101B6C00103BC3F3492353B11B4F1C481C492B4654
:101B7C003246B9F1000F08BF384604F09FFC678865
:101B8C00C7F3CB0797B12368C3F349231D44102F28
:101B9C003C4628BF10242946CDF8008053462246E7
:101BAC003046FFF78BFE3F1B2544F0D1B9F1000FF7
:101BBC0004D04A4641463046FFF792FF304604B007
:101BCC00BDE8F04705F036B84FF0FF33BBE7CA4627
:101BDC00C4E700BF6C7A0000916C00005B6C0000E5
:101BEC00290D000073B542F20F738B4228BF0B46D0
:101BFC0005680F4A04460521684604F0CCFC63686E
:101C0C000C495B6806460B22284605F006F863680B
:101C1C003246694628465B6804F0FFFF6368064954
:101C2C005B681B22284604F0F8FF02B070BD00BFB1
:101C3C003D870000287F00000C7F0000084A10B58B
:101C4C000123084C13600021A04204D801B1136099
:101C5C00054B186010BD40085B000121F4E700BF84
:101C6C002C08002040420F00280800202DE9F04FDE
:101C7C0087B0DDE911579A46109BDDF84CB0039301
:101C8C00044689469046CFB3CDF800B03B462A4671
:101C9C0010210020CDF814B0FEF7BAFB0646039ACB
:101CAC0008F0070304F0070802F11700144C4FEA80
:101CBC00C80848EA83183044124B04EA462420F042
:101CCC00070048EA040803EAC243800848EA03080C
:101CDC00FFF7C6FC044640B13FB1CDF800B03B461F
:101CEC002A4631461030FEF793FB5346424649468E
:101CFC00204607B0BDE8F04F04F0D1BF3E46CEE71A
:101D0C0000FE07000000F87FF8B5074F0D460446AB
:101D1C004618B44201D12846F8BD386814F8011BA6
:101D2C0083685B689847F4E748080020014B002063
:101D3C001960704738080020014B024A1A6070473E
:101D4C0048080020BC780000024B034801221A709E
:101D5C0004F070BF940A0020907B00000148FFF74C
:101D6C0041BF00BF907B0000064B10B518680C46B5
:101D7C00FFF7CAFB21460346BDE8104002480F227C
:101D8C00184700BF38080020907B0000014B01224F
:101D9C001A707047A60A0020014B0020196070478A
:101DAC0054080020024B034801221A7004F042BF71
:101DBC00A70A0020C07B00000148FFF713BF00BF3B
:101DCC00C07B0000064B10B518680C46FFF79CFB57
:101DDC0021460346BDE8104002480F22184700BFB9
:101DEC0054080020C07B0000054B1B781BB141F24E
:101DFC00883005F0DCBCA420002104F0F7B800BF4B
:101E0C00A70A00202DE9F047DFF88C90DFF88CA0B2
:101E1C0080460F46042499F80050CDB94FF0FF339B
:101E2C004FF0FF32504603F007FD3A464146284634
:101E3C0003F04CFA0646504603F076FD184DFEB101
:101E4C0001232B7099F800306BB93846BDE8F08748
:101E5C003A464146002003F039FA0646EEE75CB9F3
:101E6C002C704FF0FF34002003F07CFA0028ECD0EB
:101E7C002B78002BF3D1E8E7013CFFF7B5FFF2E735
:101E8C002B7813B1013C04D12C702B78002BC2D1D0
:101E9C00DBE7FFF7A9FFF8E7A70A0020D80100202D
:101EAC00A60A00202DE9F84305464FF02003EFF376
:101EBC00118683F31288BFF36F8F0E4B1C689CB195
:101ECC000D4FDFF838804FF00C09D4E90132002DAA
:101EDC0008BF13462BB198F8142009FB02F2B85C2A
:101EEC0098472468002CF0D186F31188BFF36F8FCC
:101EFC00BDE8F883640800206C080020540A002018
:101F0C004209012300F01F0003FA00F0074BBFF356
:101F1C005B8FC04303EB820353E8002F024043E87E
:101F2C0000210029F8D1BFF35B8F7047780800209F
:101F3C0038B51A4B1C7DBFF35B8F04F01F030122D5
:101F4C009A40174B6109D04303EB810353E8001F00
:101F5C0001EA000543E8005CBCF1000FF6D1BFF3C9
:101F6C005B8F114213D00F4B0F4D8BB10C2363437E
:101F7C00EA18E85C517804F041FF0020FFF792FF6B
:101F8C000C235C432A1900232B51C2E9013338BDC1
:101F9C0083F31188BFF36F8FEFE700BF540A002063
:101FAC007C080020096E00006C0800202DE9F84325
:101FBC00324B334A1C7DBFF35B8F63094FEA8309B5
:101FCC0052F823302F4EBFF35B8F04F01F0843FAF7
:101FDC0008F313F0010F07460AD10146204600F022
:101FEC0069F828B107C80C2303FB046383E80700D6
:101FFC000C236343F218F55C2DB92046FFF780FFE4
:10200C002846BDE8F8837B1C0FD0D2F808C01E48C8
:10201C001E4A4FF4004500210023ECFB0501FEF79E
:10202C0057F80121381A05F0A4FB03F05FFD0120DD
:10203C00FFF738FFBFF35B8F012303FA08F8144B4B
:10204C00994459E8003F43EA080349E80032002A62
:10205C00F7D1BFF35B8F0F4B33B10C236343F218F3
:10206C00F05C517804F0BEFEFFF762FF2046FFF7EC
:10207C0047FF03F00BFF0120C3E700BF540A002009
:10208C00780800206C0800203F420F0040420F00EF
:10209C007C080020F16D0000054BBFF35B8F53F8FB
:1020AC002000BFF35B8F003818BF0120704700BFC2
:1020BC00800800202DE9F04F85B00F4603A900F0F1
:1020CC0047F8DFF88080DFF880A0441E24B24FF080
:1020DC00000B631C04D10026304605B0BDE8F08F20
:1020EC00039A04EB440302EB830612F82300FFF778
:1020FC00D3FF054610BB70684FF40049C44629460F
:10210C00E0FB09C152465B466046FDF7E1FF0190DA
:10211C00B068C4462946E0FB09C15B46524660469E
:10212C00FDF7D6FF094B1B68591C01D0834205D91A
:10213C007A1CD1D0019B1844B842CDD9013C24B2B1
:10214C00C7E700BF3F420F0040420F0008000020CD
:10215C0008B9024B0B600020704700BFD07B000019
:10216C00014910220A60704710ED00E072B6404041
:10217C0080F31188BFF36F8FBFF34F8F30BF62B600
:10218C00BFF36F8F704700BF72B6494081F311885F
:10219C0020BF80F3118862B6704700BF2DE9F0476D
:1021AC00814600AF0C4600294CD06E468AB06D4675
:1021BC00D1E90012A3682748A8464FF0050AC5E9E3
:1021CC000501C5E9072348F810AF23484246002310
:1021DC004FF4215104F07EFDD4E9031263691F48CA
:1021EC00C5F810A0B546C5E90501AD46C5E90723FC
:1021FC001948424600234FF4215104F06BFDB546BB
:10220C0088B06D46E369164AA8464FF0030AC5E943
:10221C00052348F810AF1048424600234FF4C25132
:10222C0004F058FD0F4AA369C5F810A0B546C5E9DE
:10223C000523AD460848002342464FF4C25104F032
:10224C0049FDB5462146484603F0B6F8BD46BDE803
:10225C00F08700BF617F00009C7A0000907F000037
:10226C00BF7F0000CE7F000043B2002B08DB0122B1
:10227C0000F01F0002FA00F05B09024A42F823004A
:10228C00704700BF00E100E043B2002B0DDB0122E0
:10229C005B0900F01F0002FA00F02033034A42F8F9
:1022AC002300BFF34F8FBFF36F8F704700E100E047
:1022BC00054B420900F01F0053F82220012303FABA
:1022CC0000F01040704700BF00E100E043B2002B6B
:1022DC00A8BF03F1604301F10101B8BF064B4FEAFF
:1022EC004111ACBF03F5614300F00F00C9B2B4BF9C
:1022FC00195483F80013704714ED00E030BFFFF75A
:10230C00FDBF00BF0B4A08B50B4B22F07F029A6051
:10231C00BFF34F8FBFF36F8FD3F8882022F4700276
:10232C00C3F8882003F0E0F803F0D2FE00F0B8FB0D
:10233C0003F01EF90000000000ED00E0094A0A4914
:10234C00936809689967094958674B6843F080534B
:10235C004B60002383F31188BFF36F8F9368986FE2
:10236C00704700BF540A0020E07D000000ED00E043
:10237C0012498A684FF030001044EFF3098C80E862
:10238C00F01F202080F31288BFF36F8F0C4F4FF09B
:10239C000066CA698A603E60506F0023536780F301
:1023AC00118804B5104600F017FCBDE8044002F19A
:1023BC00300090E8F01F8CF309887047540A002015
:1023CC0004ED00E01EF0040F0CBFEFF30880EFF3F8
:1023DC000980816911F8021C0229FFD001B504F0B3
:1023EC00BEFC01BD42F8203C009B42F81C3C0A4953
:1023FC00019B42F8183C029B42F8143C21F001016D
:10240C004FF0807342F8043C42F8081C0023203A39
:10241C0002654367704700BF13670000094A034613
:10242C00906870B113F1160F406E05D0A0F1200228
:10243C009A4205D8834203D2814228BF00207047BC
:10244C0000207047540A002008B5094B98600D46CF
:10245C00144600F0C1FB204685F30988002163B6C1
:10246C0081F31188BFF36F8F0022002304F04BF926
:10247C00540A002001B572B60B4A906900281EBFA1
:10248C000021916105F06DF862B6EFF30580A0F1C3
:10249C0010004FEAC0000549014409C99847BDE83E
:1024AC000140034908470000540A00203479000019
:1024BC00C1240000044B9968D869884203D00349B1
:1024CC004FF080520A607047540A002004ED00E07F
:1024DC002DE9F04186B000AF3F4B7B6106460D46BF
:1024EC003E484FF48251022407F110023C6104F083
:1024FC0045FC3B4B9B6AD90409D53A4B374807F14D
:10250C0010024FF48251C7E9044304F037FC344BFA
:10251C009B6A1A050AD5344B7B613048022307F1BC
:10252C0010024FF482513B6104F028FC2C4CA36A3E
:10253C009B0522D52D4B29487B6107F11002022304
:10254C004FF482513B6104F019FCA36BA26A100496
:10255C00E84612D588B0264920486A46C2E90513D8
:10256C00032342F8103F4FF4C25104F007FCC54658
:10257C001EB1A36A23F40043A362194B9B6A59054D
:10258C000AD51C4B7B611548022307F110024FF44E
:10259C0082513B6104F0F2FB114B9A6AD20515D5BE
:1025AC00154B7B610D48022307F110024FF4825149
:1025BC003B6104F0E3FB0A4A936A002043F47F4337
:1025CC00183793622870BD46BDE8F0819B6A9B0466
:1025DC00F1D50A4BE5E700BFFC7F00009C7A0000B8
:1025EC0000ED00E012800000238000003680000027
:1025FC004F800000648000007F8000009780000006
:10260C0010B586B0334B34480593022404AA4FF41A
:10261C008251049404F0B2FB304B9B6A9B0108D5A9
:10262C002F4B2D4804AA4FF48251CDE9044304F0FA
:10263C00A5FB2A4B9B6ADC0109D52A4B059326483E
:10264C00022304AA4FF48251049304F097FB234B0A
:10265C009B6A180309D5244B05931F48022304AA2F
:10266C004FF48251049304F089FB1C4B9B6A590371
:10267C0009D51E4B05931848022304AA4FF4825126
:10268C00049304F07BFB154B9B6A9A0309D5184BFA
:10269C0005931148022304AA4FF48251049304F0C9
:1026AC006DFB0E4B9B6ADB0309D5124B05930A4855
:1026BC00022304AA4FF48251049304F05FFB074AEF
:1026CC00936A6FEA03436FEA13430020936206B0E8
:1026DC0010BD00BFC68000009C7A000000ED00E039
:1026EC00DE800000F18000000B81000029810000D9
:1026FC004E810000688100002DE9F04786B000AFE4
:10270C00504B7B61064688464F481446022507F11C
:10271C0010024FF482513D6104F030FB4B4B9B6A2D
:10272C00D80609D54A4B484807F110024FF482519C
:10273C00C7E9045304F022FB444B9B6A19070AD5E2
:10274C00444B7B614048022307F110024FF4825145
:10275C003B6104F013FBDFF8F4A0DAF828309A0799
:10276C0039D46FF01505394B9B6AD8070AD53A4B0B
:10277C007B613548022307F110024FF482513B6113
:10278C0004F0FCFA314B9B6A99060AD5334B7B61FA
:10279C002D48022307F110024FF482513B6104F0E3
:1027AC00EDFA2A4B9A6AD2063FD49A6A90073CD427
:1027BC000020264B9A6A920642BF5A6A22F40052B3
:1027CC005A629A6A42F0FF029A6218370023237009
:1027DC00BD46BDE8F087224B7B611B48022307F105
:1027EC0010024FF482513B6104F0C8FADAF834500D
:1027FC00DAF828301B06E946B3D588B0194B1248D5
:10280C006A46C2E90535032342F8103F4FF4C25122
:10281C0004F0B4FACD46B8F1000FA4D0DAF82830A1
:10282C0023F08003CAF828309DE75B681905BFD5F3
:10283C0031462846FFF7F2FD0028B9D080F309880D
:10284C000220B6E7938100009C7A000000ED00E0C6
:10285C00A9810000238000000A82000097800000FC
:10286C00DC810000F48100002DE9F04F764B8BB039
:10287C00D3F8048000AF0D46C8F30804002686F395
:10288C001188BFF36F8F02F07F43B3F17F4F0ED1EE
:10289C0002F00C03082B0CD16C4BFB616C4802232F
:1028AC0007F118024FF48251BB6104F067FA354608
:1028BC0003E0120701D4054601260023FB71E31E39
:1028CC00092B00F2A180DFE803F0059497919F9FFC
:1028DC009F9F9F9ADFF870815E4B5D48FB614FF0C4
:1028EC00020A07F118024FF48251C7F818A004F03D
:1028FC0045FAD8F82C404FF0000B14EA0A04E946CC
:10290C0087F807B00BD0544BC7E906A3504807F122
:10291C0018024FF4825104F031FA00240DE0D8F87B
:10292C002C30002B25DA4D4B494807F118024FF497
:10293C008251C7E906A304F021FAFB79ABB9202236
:10294C00294607F1080004F036FA7B6A002E76D08F
:10295C00C3F3080222B96FEA53236FEA43237B6265
:10296C0007F108012046FFF719FC2C37BD46BDE8DE
:10297C00F08FD8F82C305B00DFD5394B344807F199
:10298C0018024FF48251C7E906A304F0F7F9AB69BA
:10299C0033F8022C4DF602739A4209D098F828307D
:1029AC00BBB1FA1D01212846FFF7A6FE0446C4E779
:1029BC0088B02B682B4926486A46C2E905130323C5
:1029CC0042F8103F4FF4C25104F0D8F9CD462C68B0
:1029DC00B3E798F8293023B1F91D0120FFF778FDF2
:1029EC00E4E7B8F82A309BB2002BA6D0FFF708FE1C
:1029FC00DCE7FA1D0021D6E7F91D0020EEE71A4BA3
:102A0C00FB610223BB6181E7184A194B1949104835
:102A1C0018F4F87FE8468AB018BF13466A46C2E934
:102A2C000513022382F82030103C134BD4614FF471
:102A3C00095142F8103F04F0A1F9C5466DE723F4A3
:102A4C00FF7323F001038AE700ED00E057820000DA
:102A5C009C7A00008282000099820000BA820000F9
:102A6C00C8820000E7820000038300003E82000061
:102A7C00298200002783000004000001024A5369E8
:102A8C0043F010035361704700ED00E0EFF3088052
:102A9C00EFF3098101B57246FFF7E6FE01BD00BFF9
:102AAC00044800232021C2180133272B82F800137D
:102ABC00F9D1704700E100E0002080F31488BFF3E7
:102ACC006F8F04F0A3FE00200D490860BFF34F8FF9
:102ADC000C4880F3088800F02BF8202080F3118834
:102AEC0009484FF40261401880F30988EFF3148011
:102AFC000221084380F31488BFF36F8FFFF702FCA9
:102B0C0094ED00E0E0150020601700200749D1F893
:102B1C0090200023C2F307221846934200D170473D
:102B2C00C1F89830C1F8A0000133F6E700ED00E0E1
:102B3C0008B572B6002383F31388FFF7E7FF144B35
:102B4C004FF0FF32C3F88020C3F88420C3F88820EC
:102B5C00C3F88C20C3F89020C3F89420C3F89820B5
:102B6C00C3F89C20C3F88021C3F88421C3F88821C2
:102B7C00C3F88C21C3F89021C3F89421C3F8982191
:102B8C00C3F89C2162B6BFF34F8FBFF36F8F08BDA4
:102B9C0000E100E0084B9B6883420BD1EFF3058307
:102BAC0043B1064B5A6842F080525A605A6A22F47A
:102BBC0000425A6203F03ABA540A002000ED00E0D9
:102BCC00024B034A0348012100F090B80000012099
:102BDC0000000020D07B0000426E054B203A1A60AA
:102BEC00044A2021C3E901121846012100F088B8DB
:102BFC009C08002000000B15F8B5DFF8B4C000AF3E
:102C0C0000258D421ADA4468002C4DD0FBB104F13A
:102C1C00FF3E14EA0E0F14D0264B6C4688B06A4661
:102C2C00C2E90535032342F8103F234800234FF433
:102C3C00C25104F04FF86FF01502A5461046BD4680
:102C4C00F8BD1F2CE8D906681EEA060FE4D1202C2B
:102C5C000668D0F808E0D2B214D9B4F1004F13D8FA
:102C6C00013CB4FA84F4C4F11F046400072A4EEA50
:102C7C0004040BD911496C4688B06B46C3E90512A4
:102C8C001A46CFE70824F1E73E24EFE726F01F06AB
:102C9C00164346F0100644F00104CCF89820CCF80A
:102CAC009C600132CCF8A04001350C30A9E700BF84
:102CBC0000ED00E03E830000947A00006183000088
:102CCC00044B0522C3F89420BFF34F8FBFF36F8FD3
:102CDC00704700BF00ED00E0BFF35F8F024B002296
:102CEC00C3F89420704700BF00ED00E010B5034C12
:102CFC0001232278FFF780FF207010BDA80A002066
:102D0C0008B5094A00231278FFF776FF10F1160F69
:102D1C0003D0064B0022072800DD08BDC3F898003D
:102D2C00C3F8A0200130F6E7A80A002000ED00E06F
:102D3C0014490868082810B521D8FFF7CDFF124CAC
:102D4C0049680022904201F10C0105D10F4B18701B
:102D5C00FFF7B6FF002010BDC4F8982051F80C3CCA
:102D6C0023F01F03134343F01003C4F89C3051F8B5
:102D7C00043C43F00103C4F8A0300132E2E74FF009
:102D8C00FF30E8E7DC7B000000ED00E0A80A002043
:102D9C00014B1860704700BF0C0000204FF020035F
:102DAC00EFF3118283F31288BFF36F8F064901236F
:102DBC00C1F840354FF08041C1F8783582F3118865
:102DCC00BFF36F8F0020704700E001404FF080434D
:102DDC00C0B2C3F81C05BFF34F8F0549054BCA6839
:102DEC0002F4E0621343CB60BFF34F8F00BFFDE7EB
:102DFC0000ED00E00400FA0520B1034B800143F024
:102E0C0001031847704700BF207B0000084B70B5CA
:102E1C00C31A0D4607499B100446594306484022E5
:102E2C0004F00EF82B4601462046BDE870401847CA
:102E3C00B8080020B76DDBB68C78000073B50C4C6D
:102E4C000C4A4023041B00930D460B460A49A41060
:102E5C0061430646094804F020F8011E05DA3046A5
:102E6C002B4602B0BDE87040184702B070BD00BFE1
:102E7C00B8080020156F0000B76DDBB68C78000029
:102E8C00002270B5012104461046FFF71FFA0F48C7
:102E9C0001F08EFC0E4B984215D104F0CFFA266946
:102EAC000C49304603F0D3FB00280BDB246909499D
:102EBC000125356404F11C0003F0C9FB002801DB7B
:102ECC00E564002070BD6FF00400FBE7192F0000D3
:102EDC000000AD0B2C7C000001460C2309484B4331
:102EEC0070B5C418D4E90E5600224033A2631844BE
:102EFC0003F093FF2DB132462B460348BDE87040DA
:102F0C00184770BDB80800208C78000010B101285B
:102F1C0004D07047034B1B6C5B0701D1FFF7DCBF80
:102F2C00704700BFB808002008B54FF02003EFF33E
:102F3C00118183F31288BFF36F8F124A136843F029
:102F4C00020013F0010310600CD04FF08042D2F855
:102F5C000C34D2F80C2413F0010303D00A4803F00C
:102F6C005CFF012381F31188BFF36F8F23B1BDE8A0
:102F7C0008400020FFF7B0BFBDE80840012001F079
:102F8C0027BC00BF08090020F80800201FB500224C
:102F9C000123CDE90223094ACDF800D06B46CDF8C8
:102FAC0004D003F0AAFF002805DB4FF48042002375
:102FBC00684602F01BFD05B05DF804FB2D6F0000A8
:102FCC0010B5074C23782BB94FF4A57004F0EFFB28
:102FDC0001232370BDE81040002001F0F9BB00BFB5
:102FEC00A90A0020094BBFF35B8F53E8002F22F096
:102FFC00020143E800100028F7D1BFF35B8FD30721
:10300C0002D4012004F027BA704700BF0809002041
:10301C002DE9F0413949BFF35B8F0746012251E896
:10302C00003F41E800200028F9D1BFF35B8F33B992
:10303C00334934484B60CB608A6003F01BFB7B1E2A
:10304C00012B2FD8012F07D14FF08043D3F81C341C
:10305C0003F00303012B25D004F078FA044618B9C9
:10306C00294B1B78002B41D14FF02003EFF3118635
:10307C0083F31288BFF36F8F0124DFF890804FF039
:10308C008045D5F81834D5F81824D2030CD503F0A4
:10309C000303012B01D0012F06D10CB386F3118849
:1030AC00BFF36F8FBDE8F081ACB13046FFF76CF821
:1030BC00D5F81835002BE4D1D5F80421002AE0D03E
:1030CC00C5F80431D5F804310123C5F81835C8F812
:1030DC008031AB60D5E70021212002F087FFE7E7C4
:1030EC004FF080430222C3F80423DBE74FF0804308
:1030FC000222C3F808230646BFE700BF0C090020D4
:10310C00A8080020D4080020BA0E002000E100E03E
:10311C0008B5084B0848186004F00AFA38B107489B
:10312C00FFF736FE0548FDF7FFFC002008BD6FF0E9
:10313C001200FBE710090020BC7800004D310000A4
:10314C000A2838B5074D044604D1286883680D2138
:10315C005B68984728688368E1B25B6898472046AB
:10316C0038BD00BF1009002030B54068047B01F069
:10317C001F05B2F5001F45EA441585B04FF0000459
:10318C0004D1284601F0DEFD00202EE0B2F5800FC0
:10319C00CDE902442BD1B3F1007F0CBF04230523EE
:1031AC008DF80830836823FA01F1C9072BD4B2F1EA
:1031BC00A07F28D105F01F0303F5E0734FF0A04268
:1031CC0052F82330DB071ED40DF1070421462846A4
:1031DC0001F020FD144B984214D1204601F068FDFB
:1031EC00124B98420ED06FF00B0005B030BDB3F10E
:1031FC00C06F05D0B3F1007F0CBF02230123CFE7D2
:10320C000323CDE703940023194602AA284601F0B4
:10321C00D9FB064B984204D10121284601F04EFD02
:10322C00B2E76FF00400E0E70400AD0B0000AD0B5B
:10323C0010B501F02DFD044668B901F001FD084BF5
:10324C0098420AD10748214601F0DEFC22460521AE
:10325C000620FFF73BF8002010BD6FF00400FBE7E1
:10326C000000AD0B75320000430970B510D1094B4D
:10327C00596869B101250C68074E85408A682A4057
:10328C0002D04B683046984714B121462468F5E7C4
:10329C0070BD00BF14090020A47800002DE9F04394
:1032AC0047683B7B01F01F0585B00E4645EA431588
:1032BC001446CAB902A9284601F0ACFC04462846BB
:1032CC0001F068FD4A4B984204D06FF0040005B041
:1032DC00BDE8F083844205D19DF8080001F0E2FCC2
:1032EC00A042F2D10020F2E74FF000090DF10301EA
:1032FC003046CDE9029901F08DFC4B46804602AA7E
:10330C004946284601F05EFB394B984202D06FF0DB
:10331C001500DCE7804503D19DF8030001F0C2FCE9
:10332C00A30351D540F20663234040F20622934298
:10333C003BD00CD8062B15D004D89BB1022BE6D170
:10334C0004230FE0B3F5007FE1D101230AE040F242
:10335C00024293422BD0B3F5C06F2AD0B3F5806FE5
:10336C00D5D102238DF8043084F48033C3F30043A9
:10337C00E0068DF8053054BFC4F34013032321033A
:10338C008DF8063017D57B68012101FA06F6C3F8D3
:10339C000865002201A9284601F0BEFB144B984297
:1033AC0014BF6FF01500002091E70723DAE705231F
:1033BC00D8E70323D6E7620341BF7B68012101FAFA
:1033CC0006F6C3F80C65E4E7E3064FF0000354BFC0
:1033DC00C4F3401403241A4601A928468DF804406E
:1033EC0001F0F0FA024B98423FF47CAF8FE700BF3C
:1033FC000000AD0B80B500AF88B06A46084B536136
:10340C00084B9361032342F8103F074800234FF405
:10341C00C85103F05FFC6FF01500BD4680BD00BFC6
:10342C00C18300003C8400006C7A00002DE9F0415F
:10343C00D0F81080204E05464068C36900AF1B6869
:10344C009847044698B96D461C4B88B06A46C2E949
:10345C000536032342F8103F00234FF4C851184897
:10346C0003F038FC2046AD46BD46BDE8F0816868E7
:10347C00C36908F104025B6801219847044620B136
:10348C006D4688B00F4B6A46E1E72B68A8F8000040
:10349C006D468AB06A46A8F802000B49D361032333
:1034AC0082F82030094BC2E9051642F8103F4FF460
:1034BC000C510346D3E700BF2F840000DD830000CE
:1034CC006C7A0000F3830000098400000400000102
:1034DC00F0B58DB000AF42EA81327B60102513B29B
:1034EC00002492B2D10748BF013405F1FF3548BF23
:1034FC00E4B215F0FF054FEA5202F3D104F00104D7
:10350C0043EAC43407F10E0307F110023B610123B7
:10351C00C7E9062301463A1DC7E9082307F1200233
:10352C00C7E90A2351F8040BFC817B61836807F11E
:10353C0018021C6807F12803A047044688B16E46A0
:10354C0088B06A46094B5361094BC2E90630042323
:10355C0042F8103F07482B464FF4045103F0BAFBD6
:10356C00B54620463437BD46F0BD00BF5084000040
:10357C00F98400006C7A0000F0B5002383B0154686
:10358C0000AF0A4619460646FFF7A2FF0446A8B14B
:10359C006D46264B88B06A465361254BC2E906340A
:1035AC00042342F8103F234800234FF4045103F046
:1035BC0091FBAD4620460C37BD46F0BD0346014697
:1035CC002A463046FFF784FF044620B16D4688B08A
:1035DC00194B6A46E0E74FF6FF73FB800246014643
:1035EC00BB1D3046FFF774FF044620B16D4688B012
:1035FC00124B6A46D0E7FB88AB42DBD06D4688B0F5
:10360C006A460E4B53610A4B93616FF03C03D361D6
:10361C00042342F8103F4FF404510346054803F0CD
:10362C0059FB6FF04604AD46C4E700BF6D84000043
:10363C00098500006C7A0000858400009D840000E0
:10364C00F0B583B000AF1546BB1D0122C9B20646CA
:10365C00FFF73EFF0446A8B16D4688B06A461B4B87
:10366C0053611B4BC2E90634042342F8103F19483E
:10367C0000234FF4045103F02DFBAD4620460C37CC
:10368C00BD46F0BD02460146BB1D3046FFF720FF8C
:10369C0004460028E0D1FB885A0413D56D4688B047
:1036AC006A460D4B53610A4B9361032342F8103F5A
:1036BC004FF4C8510346074803F00CFB6FF0460467
:1036CC00AD46DBE7C3F30D032B80D7E7B9840000CD
:1036DC00E58400006C7A0000D08400002DE9F843EA
:1036EC00846800AF05460126D5E9023203EBC2031C
:1036FC009C4201D300201BE0206803F019FFD0B9D5
:10370C0023681E48196823796C468AB06A46C2E958
:10371C000501D361022382F82030194B194842F875
:10372C00103F4FF4095103F087FC6FF01200A546CF
:10373C00BD46BDE8F88320682179E388D0F810E015
:10374C00D0F80890DEF800C0DA0754BF43F4B01389
:10375C0083F4D01323F4801206FA01F8DB074CBF74
:10376C004CEA08032CEA0803CEF80030D9F80030F4
:10377C0098470028DCDB0834B6E700BF1E85000044
:10378C0004000001B47A000030B50569AA6C2B6DF9
:10379C0085B082B973BB1C4600221146284603F043
:1037AC0072FC2C6305F1200002F000F9002385F86F
:1037BC005C3005B030BD114613B19A4228BF194692
:1037CC006C6C40680094A965B4B1002A18BF0A4615
:1037DC000192EA6C02928AB1002B18BF0B460022B0
:1037EC006946039301F09CFC054B9842E1D06FF0C5
:1037FC000404D1E71946E3E72246E9E71346EEE76E
:10380C000000AD0B10B5037886B00C46002B54D1DC
:10381C008B6C63B18A6D9A421ED9294B059329484A
:10382C00022304AA4FF48251049303F005FC236D88
:10383C0063B1A26D9A4227D9214B059321480223EB
:10384C0004AA4FF48251049303F0F6FB606D06B0AA
:10385C00BDE81040FFF798BF9B1A8B6473B94B6B94
:10386C0008334B638B6B013B8B6301F1480204F112
:10387C003400383103F0CFFB6064D8E74B6C002B7D
:10388C00D5D013444B64D2E79B1A23657BB9E36B09
:10389C000833E363236C013B236404F1500204F10D
:1038AC00400104F13C0003F0B6FBE064CEE7E36CAE
:1038BC00002BCBD01344E364C8E706B010BD00BFA7
:1038CC0042850000B47A00002DE9F04F8BB09A4687
:1038DC008B88046900AF9B0480460E46FA6034D492
:1038EC004FF0FF324FF0FF3304F1100002F07EF87E
:1038FC006660D8F8109099F85D307B6023B1D9F8E8
:10390C0000309E4200F0CC80B6F804C01CF4006F6E
:10391C0022D0994B7B629948022307F120024FF485
:10392C0082516FF085053B6203F086FB23689B8810
:10393C0013F4005304D1636004F1100002F036F864
:10394C0028462C37BD46BDE8F08FA369002BC7D1A4
:10395C0063689942C4D1CCE71CF0010F15D0D8F89C
:10396C000030874985486D4688B06A46C2E9051320
:10397C0002231377834B42F8103F4FF4D25103F0DC
:10398C005BFBAD466FF01505D0E71CF0080F0BD0B4
:10399C007D4B7B627948022307F120024FF4825160
:1039AC003B6203F049FBEDE7CCF34513082B01D048
:1039BC00764BEEE73568764B9D4201D8754BE8E7C0
:1039CC00D8F80430BB6003F1080BBBE80F0007F11B
:1039DC00100EAEE80F00DBF80030CEF800306E4B66
:1039EC009D4245D96D4B9D4245D96D4B9D4245D964
:1039FC006C4B9D4245D96C4B9D4245D96B4B9D42BE
:103A0C0034BF4FF080454FF000451CF0020FBD61F4
:103A1C000CF004033BD0002B14BF032302233B7791
:103A2C007B68CCF3001C87F81DC02BB1B86801F083
:103A3C0025FB002389F85D304B465D4AB86807F1D9
:103A4C00100101F077FA5B4B984224D06D465A4B2B
:103A5C0088B06A46C2E90530032342F8103F474854
:103A6C004FF4C25103F0E8FAAD466FF004055DE780
:103A7C004FF00075C9E74FF08065C6E74FF0006561
:103A8C00C3E74FF08055C0E74FF00055BDE7003B52
:103A9C0018BF0123C3E7012389F85D30C9F8006022
:103AAC00012384F85C30FB68002B54D163631A4605
:103ABC00A26304F1380104F1480204F1340003F06C
:103ACC00AAFA6064BAF1000F4CD1C4F83CA053467A
:103ADC00236404F1500204F1400104F13C0003F0B2
:103AEC009AFA00263246E06401212046266303F050
:103AFC00CAFA4046FFF748FE256DA36CA0469D42CE
:103B0C0038BF1D464FF4FA535D4358F8203B4FF431
:103B1C00004C1B68B5FBF3F53146C83540F2E73075
:103B2C004FF47A720023E5FB0C01FCF7D1FA024644
:103B3C000B46404601F05AFFE0B1204B7B620F4828
:103B4C00022307F120024FF482513B626FF07305A0
:103B5C0003F072FAEAE6FB681A686263002AA7D0DF
:103B6C005A68A5E7DAF80030E363002BB0D0DAF836
:103B7C000430ADE7256BD9E660850000B47A00000F
:103B8C007A850000030000019C850000BB850000C5
:103B9C0047E80100EA8500008FD003001FA1070051
:103BAC003F420F007F841E00FF083D0000127A0088
:103BBC00113800000000AD0B1B860000428600008F
:103BCC0070B54B79012B20D18B79032B1DD1CC797E
:103BDC000CB1012C19D10A7912B1022A15D10E227D
:103BEC000B684568B3F5164F2D6862D02BD8B3F52A
:103BFC00165F61D014D8B3F5966F5FD008D8B3F5C3
:103C0C00967F5ED0B3F5167F5ED06FF085004FE0E7
:103C1C00B3F5166F5BD0B3F5965FF6D1364B3CE03F
:103C2C00B3F5E14F56D007D8B3F5615F54D0B3F577
:103C3C00964FEAD1314B30E047F61226B342E4D12D
:103C4C004FF4000329E0B3F5613F47D013D8B3F527
:103C5C00963F46D009D84DF6C026B34243D0B3F5B3
:103C6C00614FD2D14FF46B0317E0B3F5E13FCCD1E8
:103C7C004FF0EB7311E0B3F5612F37D008D8204E1D
:103C8C00B34236D0B3F5E12FBFD14FF0E86304E077
:103C9C001C4EB342B9D14FF080530069C5F824359E
:103CAC00031D03C92243C5F86C2583E803000020DB
:103CBC0070BD4FF41D03F0E7134BEEE74FF49E235A
:103CCC00EBE74FF4A033E8E74FF41C33E5E74FF490
:103CDC001D23E2E70D4BE0E70D4BDEE74FF06C7375
:103CEC00DBE70C4BD9E74FF46503D6E74FF0706375
:103CFC00D3E74FF08063D0E700B0130000A04E0074
:103D0C0090D0030040420F000050270000C0750007
:103D1C0000F03A0000903A012DE9F043002287B000
:103D2C00074601210220FEF7D1FA0220FEF79CFA89
:103D3C00D7F804803E69D8F80040D8F80C900021E0
:103D4C00C4F800156A463760484603F098FA051E19
:103D5C0026DB009BD9F800201979186803F0D1FAFA
:103D6C00051E1DDB311D3846FFF72AFF0546B8B985
:103D7C00D8F8043099072AD506F1120001F0D4F8CE
:103D8C00284B984210D0284B0593022304932748C4
:103D9C002B4604AA4FF482516FF0040502F09AFFEF
:103DAC00284607B0BDE8F083B07CC30003F1804324
:103DBC0003F5F83304F10C0204F59071C3F81015F7
:103DCC00C3F814251A4A01238340C2F8043508238A
:103DDC00C4F8003598F808305BB9C4F81031D4F841
:103DEC00103106F11103C4F834350123C4F8383509
:103DFC002360D8F804309A075CBF4FF48072C4F883
:103E0C000423DB0644BF4FF48003C4F8043310369C
:103E1C000023C4F84465C4F848350123A360E3606B
:103E2C00BEE700BF0000AD0B87860000BC7A000027
:103E3C0000F00140F8B5066905460F4603F086FB15
:103E4C0010B92C4B1B7883B94FF02003EFF311847E
:103E5C0083F31288BFF36F8F686803F0C2F928BB35
:103E6C0084F31188BFF36F8FEEE76424686803F066
:103E7C00B8F970B9012003F0DFFA013CF6D100214A
:103E8C00212002F0B3F8F0E784F31188BFF36F8FB1
:103E9C00F5E74FF02003EFF3118483F31288BFF39F
:103EAC006F8F686803F09DF90028EDD006F8107F3D
:103EBC0069680B680122C3F84465C3F848250022E1
:103ECC00C3F82021D3F82001C3F85821D3F8582186
:103EDC004A68D20641BF0822C3F800254FF480027D
:103EEC00C3F8042301229A6084F31188BFF36F8F07
:103EFC00F8BD00BFBA0E002010B501238340114A53
:103F0C00BFF35B8FDC4352E8001F01EA040C42E86C
:103F1C0000CEBEF1000FF6D1BFF35B8F4FF48032B1
:103F2C0002FA00F002F1804202F58052C2F8080356
:103F3C00BFF35F8FBFF36F8F0B4214BF01200020C4
:103F4C0010BD00BF240900201949F8B5044622F021
:103F5C007F450868C1E90023A5F50013101AB3F5D5
:103F6C00400F22D2134B1B681A0A1B065E19124B08
:103F7C0042F10007C3E90067012602F087F9A300AC
:103F8C0003F1804303F58833D3F84025AA420BD1C3
:103F9C001EB94FF40002C3F84025084B4FF4803093
:103FAC0000FA04F4C3F84443F8BD0026E5E700BF6B
:103FBC00D006002028090020B8060020001001407F
:103FCC0019B3BFF35B8F0123104A834052E8001FE3
:103FDC00194342E8001CBCF1000FF7D1BFF35B8F13
:103FEC000B4A4FF480338340C2F80433094BBFF3C0
:103FFC005B8F1B68BFF35B8F23FA00F0C30742BFD4
:10400C00054B4FF40032C3F80021704724090020FF
:10401C00001001402009002000E100E00D4B186861
:10402C00010A0006BFF35F8F0B4BD3F80435181849
:10403C0041F10001B3F5801F0AD2084BD3E90023EC
:10404C00904271EB030303D210F1807041F1000137
:10405C00704700BF2809002000100140B80600205E
:10406C002DE9F04F85B0164698460546FFF744FFFC
:10407C000090FFF7D3FFB04271EB080378D2464BA8
:10408C00301A68EB0101984271F1000380F08180D5
:10409C00424B03EB0513D3E902ABD84508BF564599
:1040AC0051D04FEA850909F1804905F1500709F50E
:1040BC008839BF004FF4803101FA05F3BFB226F006
:1040CC007F4207F180470193D9F84005344B07F53F
:1040DC0088371446D3F80415401A20F07F4021F09D
:1040EC007F4C0128C9F840C507D1CDE90221132026
:1040FC0003F05DFBDDE90221294B01F1020CA4EB7D
:10410C000C0020F07F40B0F5000F88BF6446002003
:10411C00386038680198C3F8440324F07F40C9F82C
:10412C004005D3F80405814206D0201A023820F04D
:10413C007F40B0F5000F19D8A41A24F07F4414EB7B
:10414C00060A48F1000B15490E982B0101EB0512DC
:10415C00C2E902ABC8500F9B53600024284600995B
:10416C00FFF72EFF204605B0BDE8F08F2046B1E7E3
:10417C0001230C4ABFF35B8FAB4052E8001F19437D
:10418C0042E800100028F8D1BFF35B8FB246C3465B
:10419C00D9E76FF01504E1E701000001C00600202B
:1041AC00001001402009002073B5194B194D002453
:1041BC004FF0FF304FF0FF31C5F80845C3E902015D
:1041CC004FF48033C5F80433134B02264FF40032FE
:1041DC000121C5F804631120C3F880212246FEF7A3
:1041EC0075F81120FEF740F80C4A0123AB602B60E8
:1041FC0013600B4B0B4A0093019400232046FFF7EE
:10420C002FFF3046FEF704FF204602B070BD00BF02
:10421C00C00600200010014000E100E0240900204D
:10422C00553F0000FFFF7F002DE9F743354CD4F8D4
:10423C0004339A070BD5D4F8043143B1324A002326
:10424C00C4F80431D4F804311368013313604FF00F
:10425C002003EFF3118283F31288BFF36F8FD4F82E
:10426C000433DB0312D5BFF35B8F284B53E8001FDD
:10427C0021F0010043E80006002EF7D1BFF35B8F5D
:10428C00002936D1D4F84031002B32D1002382F3EF
:10429C001188BFF36F8F4BB3FFF7C0FE4FF02003B5
:1042AC00EFF3118C83F31288BFF36F8F184BD3E9A4
:1042BC000267B04271EB07024FF0000220D34FF0BF
:1042CC00FF384FF0FF39D3E90015C3E902891A60B2
:1042DC004FF48033C4F848338CF31188BFF36F8FDD
:1042EC0021B1009532463B460020884703B0BDE81B
:1042FC00F0830023C4F84031D4F840310123C6E7E1
:10430C001146E9E70010014028090020200900208F
:10431C00C0060020431C13B521D0012821DDB0F5C7
:10432C00000F20DA441EFFF779FE104BD3E900137F
:10433C00401AB0F5000F28BF0024013002190C48B8
:10434C00824228BF024652184FF0000009490190E2
:10435C00009143F10003FFF783FE02B010BD044847
:10436C00E0E70024DFE7024CDDE700BFD0060020C9
:10437C00FFFF7F00553F000008B5FFF74FFE024BD3
:10438C001B68C01A08BD00BFD00600207FB5FDF722
:10439C0043FA074B0593022304930648002304AA0F
:1043AC004FF4825102F096FC0020FEF70FFD00BF87
:1043BC00BD8600007C7A00004FF0704393F8E02F2C
:1043CC00062A09D1D3F8E83FC3F30313033B042BAC
:1043DC0002D8024AD05C704700207047E986000082
:1043EC00024AD2F80034002BFBD0704700E00140A9
:1043FC0010B503F012F840B14FF08053904AD3F847
:10440C002433C3F30423C2F84035FFF7D5FF10B1B2
:10441C008C4B8D4A5A6703F000F848B14FF080532B
:10442C004FF08042D3F84432C3F34233C2F83C35E8
:10443C00FFF7C2FF30B1854AD2F8FC3023F080730D
:10444C00C2F8FC3002F0E9FF40B14FF0804300228B
:10445C00C3F80C21C3F81021C3F83825FFF7ACFFC3
:10446C0020B14FF080430322C3F8A025FFF7A4FF2F
:10447C0060B1774B0522C3F810260122C3F88826B9
:10448C000022C3F818263F22C3F814264FF080539D
:10449C00D3F83021511C09BF4FF07043D3F834319D
:1044AC0093F8E02FD3F8E83F08BFC3F30313062AB1
:1044BC004DD1033B042B03D8664AD35C002B46D06A
:1044CC004FF08052644BD2F80414C3F82015D2F884
:1044DC000814C3F82415D2F80C14C3F82815D2F814
:1044EC001014C3F82C15D2F81414C3F83015D2F8E4
:1044FC001814C3F83415D2F81C14C3F84015D2F8AC
:10450C002014C3F84415D2F82414C3F84815D2F873
:10451C002814C3F84C15D2F82C14C3F85015D2F843
:10452C003014C3F85415D2F83414C3F86015D2F80B
:10453C003814C3F86415D2F83C14C3F86815D2F8D3
:10454C004014C3F86C15D2F84424C3F8702502F05B
:10455C0064FF48B14FF080534FF08042D3F858328B
:10456C0003F04F03C2F8E43E02F057FF48B14FF09E
:10457C008043D3F80024D20744BF6FF00102C3F884
:10458C0000244FF08053D3F83021062A26D1D3F8DB
:10459C003431033B042B02D8304AD35C63B1304A2C
:1045AC00D2F83C3743F48063C2F83C374FF0805369
:1045BC00D3F83031062B11D14FF08053D3F834316E
:1045CC00033B042B02D8274AD35C3BB14FF010239A
:1045DC00D3F808224FF08043C3F858254FF010232E
:1045EC00D3F80022002A03DBD3F80432002B22DAA2
:1045FC001D4901234FF01020C1F804351524FFF795
:10460C00EFFEC0F80042FFF7EBFEC0F80442FFF7E4
:10461C00E7FE0023C1F80435FFF7E2FEBFF34F8F2E
:10462C000A49124BCA6802F4E0621343CB60BFF331
:10463C004F8F00BFFDE70E4B0E4A1A6010BD00BF36
:10464C000030014000C007400DF0ADBA00ED00E0B5
:10465C0000500040DA86000000C00040DF860000F9
:10466C0000100040E486000000E001400400FA0560
:10467C00500100200090D00370B501250268B2FAF9
:10468C0082F3C3F11F035E1CDCB214D0BFF35B8F4B
:10469C0005FA03F322EA030350E8006F964204D1B3
:1046AC0040E8003CBCF1000FF6D1BFF35B8FE5D1C5
:1046BC0002480C7070BD0248FCE700BF0000AD0B57
:1046CC000200AD0B0368CB40DB0710B515D40123FA
:1046DC0003FA01F10368BFF35B8F41EA030250E870
:1046EC00004F9C4204D140E8002CBCF1000FF6D1E5
:1046FC00BFF35B8FEED1024810BD0248FCE700BF50
:10470C000000AD0B0400AD0BF7B5044618B1012841
:10471C0029D003B0F0BD4FF080430222C3F8082328
:10472C00C3F80401D3F804210122DA6001239C426E
:10473C008DF8073014BF00250DF1070542F21077F4
:10474C004FF08046D4B1012CE3D125B1D6F80C340E
:10475C0003F001032B70D6F80C34DB0318D4134B85
:10476C0000225A71D5E74FF080430022C3F80803AA
:10477C00C3F80021D3F800215860D7E725B1D6F84B
:10478C00183403F003032B60D6F81834DA03C0D5C1
:10479C002DB9012002F050FE013FD3D103E09DF86A
:1047AC000730012BF5D0012CD9D0B2E72C09002011
:1047BC00044B1A7922B9012218609A80024870477A
:1047CC00024870472C0900200000AD0B0C00AD0B0B
:1047DC0038B510B1012844D038BD4FF08042D2F822
:1047EC001814D2F8183413F480330BD1D2F81414F3
:1047FC00C90710D5D2F81C349B0708D40223C2F881
:10480C000433E9E701F00303012B04D01BB10020B2
:10481C00FFF77AFF00234FF08042C2F818350023CF
:10482C00C2F80431D2F804310223C2F80433124A1C
:10483C00D2F8FC0040F08073C2F8FC300F4B1C68BF
:10484C0044F0010119605D685968491BB1F50A5FB4
:10485C00FAD31C604FF08043C2F8FC0001229A602E
:10486C00BAE74FF080430022C3F80021D3F80021AF
:10487C00C3F804031860AFE700ED00E0001000E09F
:10488C004FF0804310B5D3F800216AB10022C3F871
:10489C000021D3F800210122C3F80823114B5879C9
:1048AC0010B95A711B6898474FF08043D3F8042114
:1048BC0072B10022C3F80421D3F80421D3F81824D0
:1048CC00D3F81814920704D10122C3F818259A6062
:1048DC0010BD0222C3F80823024BBDE810401B6830
:1048EC00012018472C090020034B083033F8100026
:1048FC00C0F34010704700BF5401002070B500F1A8
:10490C0008030C4C34F81330DA0505460E4607D56F
:10491C00C3F3432304EBC30254F833305268984773
:10492C00A3682BB1E26831462846BDE870401847B1
:10493C0070BD00BF54010020124A083010B432F888
:10494C001030D9051BD5C3F3432123F4F85322F8B7
:10495C00103002F11004002034F8023B13F4807F75
:10496C0003D0C3F34323994209D001302028F3D15B
:10497C00002342F83130044810BCFFF7A3BE10BC32
:10498C00704700BF54010020A801002038B5024632
:10499C00FFF7AAFF094C02F1080540B134F81530B5
:1049AC0007495B0B03F5A273002041F82300104666
:1049BC00FFF7C2FF002324F8153038BD5401002046
:1049CC00006000402DE9F34104461E4609B34D4FEB
:1049DC0000F1080837F81850AB0706D5FFF784FF2D
:1049EC0018B1494802B0BDE8F08104F01F00800006
:1049FC0000F1A0400978D0F8003725F0020523F02B
:104A0C000F0345F0010543EA810327F81850C0F85D
:104A1C00003792B13B4B1578526804F1080033F81B
:104A2C0010108F070CD5002ADBD133F8102022F0A0
:104A3C001C0242EA850223F81020CEBB3348D1E792
:104A4C0021F02001C904C90C23F81010002AECD065
:104A5C00032DC6D817782DB92D4A07F5A27142F847
:104A6C002150E2E7BA0002F1804202F5C04241EA6D
:104A7C004731D2F810C52CF0030CC2F810C5D2F88F
:104A8C0010C52CF4473C2CF4407CC2F810C5D2F86D
:104A9C0010E54FEA042C0CF4F85C4EEA054E4CEA97
:104AAC000E0C41F0200123F81010C2F810C5BCE721
:104ABC00D6E900762046FFF73FFF002FBED0114D00
:104ACC002B689F4204D16B689E4201D1002209E001
:104ADC0010480DF10701FFF7CFFD0C4B984281D127
:104AEC009DF8072045F8327005EBC20308345E6070
:104AFC0035F8143043EA422343F4807325F814301C
:104B0C009CE700BF540100200400AD0B0000AD0B6E
:104B1C0000600040A8010020F8B5044671B3374E80
:104B2C0000F1080736F81750AB0704D4FFF7DCFE8A
:104B3C0008B13348F8BD15F01C0F4B7801D0012B90
:104B4C00F7D004F01F00800000F1A04091F800E0C5
:104B5C00D0F800C789785B002CF4E16C43EA0E2393
:104B6C002CF0070C43EA0C0343EA810345F00305E0
:104B7C0043F0010326F81750C0F800370AB9214852
:104B8C00D8E71E4E04F1080736F817008307D0D576
:104B9C0092F800C06146890020F0200001F18041AC
:104BAC00C00401F5C041C00C26F817000023C1F861
:104BBC0010355578002DE2D0D1F81035927823F4C9
:104BCC00981323F4F853C1F81035D1F810E52302EB
:104BDC0003F4F8532D0443EA0E0305F44035120593
:104BEC002B4302F4801240EA4C30134340F0200077
:104BFC0026F81700C1F81035C1E700BF540100209A
:104C0C000400AD0B0000AD0B014BC3E90201704772
:104C1C005401002008B50246FFF766FE38B1054B7B
:104C2C000548083233F812305B0B0B7008BD034893
:104C3C00FCE700BF540100200000AD0B0400AD0BDD
:104C4C0038B50F4C94F85850BDB94022294604F1A0
:104C5C00100002F0BBF80620FDF706FB094B0A48D2
:104C6C00C3F87C51D3F87C214FF00042C3F80423E5
:104C7C00012384F85830636538BD0448FCE700BF55
:104C8C0054010020006000400000AD0B0500AD0B8E
:104C9C00034B93F85800003818BF0120704700BF31
:104CAC005401002001460148FFF70CBDA40100206F
:104CBC0001460148FFF7E0BCA401002010B50246F4
:104CCC00FFF712FE02F108041C4B33F81430E0B16C
:104CDC0013F0020419D15B0B9A0002F1804000F52D
:104CEC00C24002F1804202F5C04204600068D2F872
:104CFC00100540F00100C2F8100529B1012202FA9A
:104D0C0003F30F4AC2F8043310BDC3F38203042B20
:104D1C0010D0052B10D04FF0A043D3F8101502F093
:104D2C001F03D94001F001010231BDE810401046CB
:104D3C0002F093BB0321F8E70221F6E754010020AF
:104D4C000060004008B50246FFF7CEFDC0B102F18D
:104D5C0008010E4B33F81130990711D45B0B01226B
:104D6C009A409B000A4903F1804303F5C043C1F804
:104D7C000823D3F8102522F00302C3F8102508BD30
:104D8C00BDE808400021104602F067BB540100202A
:104D9C00006000400D4B00F1080210B533F81230E2
:104DAC00DB0704460FD5FFF7CDFF204604F01F04A8
:104DBC00FFF7ECFD04F5E0744FF0A043022243F83A
:104DCC002420034810BD0348FCE700BF5401002019
:104DDC000000AD0B0400AD0B2DE9F74F4E4B4F48C7
:104DEC004F49002501222C461E6836B1D0F80463C9
:104DFC0016421EBF1C601E68154304338B424FEADB
:104E0C004202F1D1454BD3F87C31BBB14FF0A046F7
:104E1C00D6F820350193C6F8203501AF4FF00108C4
:104E2C00019C6CB93D4BC3F87C41D3F87C31D6F86E
:104E3C0020350193C6F82035002BEED1012466E015
:104E4C0094FAA4F4B4FA84F4364A04F10803E008A2
:104E5C0032F8131004F0070308FA03F23B5C23EA60
:104E6C0002033B54A30003F1A049C1F3820AD9F811
:104E7C000027CB06D346C2F3014218D5594620462B
:104E8C005FFA82FAFFF73AFDD9F80037C3F3014312
:104E9C009A4507D10021204602F0DFFA5146204600
:104EAC0002F0DBFA08FA04F4C6F82045B8E7022A47
:104EBC000CBF03210221204602F0CFFABAF1030FF6
:104ECC0004D0022A07D1BAF1010FEBD15946204682
:104EDC00FFF714FDE6E7032AE4D1BAF1020FF4E779
:104EEC0095FAA5F3B3FA83F304FA03F29B0003F1EA
:104EFC00804303F5C04325EA0205D3F81005D3F827
:104F0C001015C0F30420C1F30141FFF7F7FC002D8D
:104F1C00E6D103B0BDE8F08F0061004000600040B6
:104F2C00206100405401002001460148FFF7A4BB5A
:104F3C00B0010020F8B506794D4D28277743EC19C0
:104F4C0094F81CC0BCF1000F40F08F80006891F801
:104F5C000FC0EA51636084F825C0CB78A3774F79F2
:104F6C00E7770F7BBCF1000F41D10C784FF0A04CD0
:104F7C0004F01F044FF0010E0EFA04FE012F04F58D
:104F8C00E07494BFCCF80CE5CCF808E54FF0010EBA
:104F9C004CF824E04C78FF2C0BD004F01F040EFAD4
:104FAC0004FE04F5E074CCF80CE54FF0030E4CF85D
:104FBC0024E08C78FF2C0BD091F80EC004F01F0469
:104FCC0004F5E0744FF0A04E4FEA8C0C4EF824C060
:104FDC00FF2B0CD003F01F034FF0A04C01249C407E
:104FEC0003F5E073CCF8084503244CF823400B7C04
:104FFC009BB94B7891F800C0FF2B18BF1C468B78DF
:10500C00C0F808C508BF4FF0FF34FF2B08BF4FF0A6
:10501C00FF33C0F80C45C0F810358B68C0F8243548
:10502C004B7B003B18BF0123022F18D0032F19D044
:10503C00012F01D143F00203C0F854350123C0F80D
:10504C0000351AB140F30730FDF70EF9282303FBA6
:10505C00065500236B77074801232B77F8BD43F0E7
:10506C000403E9E743F00603E6E70348F6E700BF6D
:10507C00340900200000AD0B0500AD0B70B50679AE
:10508C00264C056828237343E35833B145F30730A6
:10509C00FDF7FAF80423C5F808330023C5F80035EA
:1050AC00282303FB064393F8253083BBD5F808353A
:1050BC0003F01F034FF0A04203F5E073022142F806
:1050CC002310D5F81035581C1EBF03F01F0303F531
:1050DC00E07342F82310D5F80C355A1C08D003F0B5
:1050EC001F0303F5E0734FF0A042022142F8231096
:1050FC00282303FB06439B7FFF2B08D003F01F03E1
:10510C0003F5E0734FF0A042022142F8231028234C
:10511C0003FB06440023237770BD00BF3409002035
:10512C002DE9F8430779414D28237B439446EA182F
:10513C000E46517F8646002975D155F80380B8F18B
:10514C00000F01D00123537796E80F00282404FBAD
:10515C00075404F10C0989E80F00002384F824306B
:10516C00A37FFF2B08D0012203F01F0302FA03F3E5
:10517C004FF0A042C2F80C352823BCF1000F06D02A
:10518C0003FB07552A4800236B77BDE8F883DEF84C
:10519C00004003FB07530422C4F80823C3F820C0C3
:1051AC00C4F808C1D4F8082172688AB133681B7836
:1051BC00C4F81C35012A0DD933685B78C4F81C354A
:1051CC00B8F1000F0ED00423C4F804331948DCE7FF
:1051DC00DB7FEDE7F368012BF2D9282303FB0753A0
:1051EC00DB7FEBE707EB870105EBC101D4F8083156
:1051FC00002BFBD0C4F808812046D4F8083102F00B
:10520C003AF90028F2D1282303FB0755AB7FFF2B7B
:10521C00DCD0012203F01F0302FA03F34FF0A0428B
:10522C00C2F80835D2E70448AFE700BF34090020C4
:10523C000300AD0B0000AD0B0B00AD0B0149024898
:10524C0002F04CB9340900200030004002494FF004
:10525C00402002F043B900BF5C090020014902481C
:10526C0002F03CB9840900200030024010B5114C0A
:10527C00114A1249032323616361114BA261E3615B
:10528C004FF4806323620023A3626362E3622266AD
:10529C000C4A6266E01D1022A2662367E366636710
:1052AC0001F06FFD0849204601F06BFD2023A3712E
:1052BC0010BD00BFAC090020EE860000F786000090
:1052CC00BA0A0020AA0A0020FB8600002DE9F84F3C
:1052DC00234F4FF0180B14460BFB00720646936AD3
:1052EC00556AAB42884634D8D2F820A0AAEB0509FF
:1052FC0009F1FF32944211D84FF0180906FB0993BB
:10530C003B44224658684146284401F054FD09FBB1
:10531C0006762C4474620120BDE8F88F13449C423D
:10532C001BD800FB0BBBBB444A46DBF804002C44E7
:10533C00284401F040FDB4EB0A0406D0DBF804006D
:10534C00224608EB090101F036FD182000FB067619
:10535C00E0E7013B5B1BA342CED20020DCE700BFA1
:10536C00AC090020034B182202FB00339A6A586ADE
:10537C00801A7047AC0900200E4B70B553F82040D2
:10538C00013053F82060A64200D870BDD4E9003536
:10539C002846984765B1EB6830B10028B8BF404249
:1053AC00FF28A8BFFF2018705A7842F001025A70EB
:1053BC000834E8E7CC7D00002DE9F04786B00546BF
:1053CC0000AF0E464FF02003EFF3118883F31288E1
:1053DC00BFF36F8F00F024FE042D96BF2C4B2D4B8A
:1053EC0053F825302C49E9468AB06A464FF0000A3A
:1053FC00D361032382F82430284BC2F820A0C2E9E1
:10540C000515044642F8103F254853464FF42951E0
:10541C0001F060FCCD467EB1F369C3F308035BB1C8
:10542C00204B7B6102233B611D48534607F1100260
:10543C004FF4825101F04EFC2CB1204602F08FF853
:10544C0008B1037803B91848184BE9468AB06A4684
:10545C00C2E90534032382F82030154BD06142F8A1
:10546C00103F00230E484FF4095101F033FC314634
:10547C00CD462846FEF78AFF88F31188BFF36F8F5D
:10548C002046FDF787FB1837BD46BDE8F08700BF07
:10549C00E47D000002870000188700000500000171
:1054AC009C7A000040870000108700006187000094
:1054BC000400000108B50A4B012202201A70FFF704
:1054CC005BFF00F0EFFF0320FFF756FF00F03CF905
:1054DC00FAF76CFF034A137B23F00103137308BD27
:1054EC00BA0E00205807002008B50348034A0021D3
:1054FC00121A02F027F808BD00020020BC0E002092
:10550C0070B5002386B00122CDE90423134E144D4F
:10551C0001930F22CDE902321249182303FB0055E7
:10552C0006EBC01604464FF4B07000FB04110E4B92
:10553C0000954FF4A072304600F0A8F8737B0B482E
:10554C002C7523F0040373734FF4026303FB040400
:10555C001C44EE606C6006B070BD00BFD806002025
:10556C00540A0020001600200D580000601700207F
:10557C0080B52E4BA6B083F308882D4D2D4E6B694C
:10558C002D4F43F4007300246B61E02385F8223027
:10559C00EC772C766C76AC7685F820406B6A43F40D
:1055AC00E0236B6285F82340FDF768FAFCF7D8FD21
:1055BC004FF0FF33AB62EB62FDF7BAFBFDF700FB7C
:1055CC00FCF734F840F20113ADF8243006ABB360AD
:1055DC00CDE91F44229401F0AAFF2046FFF7CCFE30
:1055EC000120164DFFF7C8FE00F06CFC144BF56162
:1055FC000593012313490094CDE903434FF48062D2
:10560C003B46CDE90144284600F040F86A7B06464B
:10561C0022F0040228466A7301F0FCFF2046FFF7D3
:10562C006FFF3A4631462846FCF70EFF801F0020DC
:10563C0000ED00E0540A0020C1540000580700207F
:10564C00C3870000E011002070B50E4B0E4CA34236
:10565C0001D3002070BDD3E9030141EA000212F02E
:10566C0003020BD19D685A61AA4201D11C33EEE7AB
:10567C005E690E60013259610144F5E76FF0150067
:10568C00E8E700BFD8010020D80100202DE9FF4138
:10569C000E9E0673042646730D9E867300F1580504
:1056AC000F46D61DC0E916550C9A002526F00706A4
:1056BC002037C0E90655C0E919768560C573C56603
:1056CC0006F1200802920B9A019288440A9A0092E1
:1056DC0042460446FCF786FE044B65659B6803B1A5
:1056EC001B6F2367404604B0BDE8F081540A0020CC
:1056FC00F0B587B000270597109F04970F9F03976D
:10570C000E9F0297DDE912650D9F01970C9F009784
:10571C000446FFF7BBFFB5F1FF3F08BFB6F1FF3FF3
:10572C0005D055EA060305D1204600F0C5FA2046FF
:10573C0007B0F0BD034932462B4604F1180000F0C7
:10574C002BFDF4E7417600002DE9F043294C2A4D5E
:10575C0087B02646AE4204F130040FD300F0C6F9F0
:10576C00244CDFF898904FF4004640F2E737AC42F7
:10577C0020D307B0BDE8F04300F088BB54F8043CDC
:10578C00059354F8103C049354F8143C039354F8C8
:10579C00183C029354F81C3C019354F8203C0093A1
:1057AC0054E90C0154E90A23FFF770FF54F8303C1C
:1057BC005E65CEE7636A5A1C0DD023EAE3730021C1
:1057CC003846C3FB060151EAC333D4F8008004D138
:1057DC00404600F071FA3034C9E74FF47A72002376
:1057EC00FAF776FC02460B4608F11800494600F021
:1057FC00D3FCF0E7D8010020D8010020417600004E
:10580C0008B50B4C0B4D4FF02002EFF3118382F3D4
:10581C001288BFF36F8F01F09CFF2B78A06113B936
:10582C00FCF7A4FCEFE7FCF7C1FB0028EBD1F7E792
:10583C00540A0020BA0E00202DE9F3410446174605
:10584C001E464FF02003EFF3118883F31288BFF349
:10585C006F8FC368324A6BB180689168884219D0E7
:10586C0057EA060318D188F31188BFF36F8F6FF0D6
:10587C000F000CE0916891F90E1021610133E36087
:10588C009368A36088F31188BFF36F8F002002B078
:10589C00BDE8F0812169F0E791F90E1090F90E3016
:1058AC009942A8BF19466FF07E029142B8BF1146CB
:1058BC008B422EDD01F05CFE0546CDE900761948E1
:1058CC002246414600F054FA0028E0D04FF0200365
:1058DC00EFF3118683F31288BFF36F8F236821696E
:1058EC009C420AD04BB193F90E309942A8BF19468D
:1058FC006FF07E039942B8BF1946A06801F038FEDC
:10590C0000B945B10748314600F0DEF86FF00A00E7
:10591C00BDE70025D1E786F31188BFF36F8FF5E75C
:10592C00540A0020BB0E002038B583680446002BB7
:10593C0032D01C4A9268934231D1DA7B013ADA7345
:10594C00C368012B05D9013BC36000F09FFA00200E
:10595C0038BD4FF02003EFF3118583F31288BFF3AA
:10596C006F8F0169806801F003FE204601F0C3FED1
:10597C00A06058B190F90E2022610022826701F0DC
:10598C0049FE0948294600F09FF8DEE7E06085F300
:10599C001188BFF36F8FD8E76FF01500D8E74FF081
:1059AC00FF30D5E7540A0020BB0E002038B5044662
:1059BC004FF02003EFF3118583F31288BFF36F8F41
:1059CC0001F099FE48B10022826701F023FE2946BE
:1059DC000548BDE8384000F077B8D4E902329A4265
:1059EC0018BF0133A360F2E7BB0E002013B54FF0D4
:1059FC002004EFF3118184F31288BFF36F8F846856
:105A0C0044B1013C846081F31188BFF36F8F002097
:105A1C0002B010BD52EA030406D181F31188BFF322
:105A2C006F8F6FF00F00F3E7CDE9002302460248B9
:105A3C0000F09EF9ECE700BFBB0E002038B5074D17
:105A4C002C6854B1FEF798FC054B04441C61286883
:105A5C000021BDE8384001F08CBE38BD840A00201E
:105A6C00540A0020F8B504460D464FF02003EFF31E
:105A7C00118783F31288BFF36F8F104E00214FF400
:105A8C00004C40F2E730316100234FF47A72E4FBB2
:105A9C000C01FAF71DFB002C094B0ADC1860094BB2
:105AAC00B0681D60FFF7CAFF87F31188BFF36F8FD3
:105ABC00F8BD0228B8BF0220F0E700BF540A00204E
:105ACC00840A0020800A002049B9EFF3058030B920
